:100000000C94D0020C94ED020C94ED020C94A91FF8
:100010000C94ED020C94ED020C94ED020C94ED02A4
:100020000C94ED020C94ED020C94D7240C94A925A9
:100030000C94271E0C94ED020C94ED020C94ED022E
:100040000C94ED020C94ED020C94ED020C94ED0274
:100050000C94ED020C94CC1E0C94ED020C94ED0269
:100060000C94ED020C94ED020C94ED020C94ED0254
:100070000C94ED020C94ED020C94ED020C94ED0244
:100080000C94ED020C94ED020C94ED020C94ED0234
:100090000C94ED020C94ED020C94ED020C94ED0224
:1000A0000C94ED020C94ED020C94ED02140614066F
:1000B00040064006A106BF06AB07AB07C4063A07D9
:1000C0004B074B07B715BC15C115C315C515C7158B
:1000D000C915CB15F6176818FE17C817CC170218E4
:1000E000CF1705181018DA175E18DE171418E21764
:1000F00018184218E6171C184C18EC1722182C1860
:10010000D3170918D6170C18F117271838185818CC
:100110005A18C417FA177118531C591C471C4D1C48
:100120005F1C651C6B1C11263826302738263027AB
:100130008426A7263027FE260D2714001A00080063
:100140001500170004221600070009000A001D21EF
:100150001B2406001900050029412A0000000000A8
:1001600000001C0018000C00120013000B000D0012
:100170000E000F00333211001000360037343831D2
:100180002C00284200000000000029003D00010072
:1001900001000100E10014001A0033020100E00038
:1001A000E2007B007E00010000002A000000000049
:1001B00000004C004A004B004D000100500051006F
:1001C00052004F00E500E30001004E00E600E400AD
:1001D0002B00280000000000000035002F00200246
:1001E000210222021E001F00200021002200000028
:1001F0000100010001000100E1002A0000000000F0
:10020000000031002D002E003000340023002400B7
:100210002500260027000100010001000100010067
:100220002C0000000000000000004800BD00BE00DF
:10023000AD000100A800AA00A900AE000100010065
:1002400001000100BC00BB00010001000000000033
:100250000000010001000100010001000100010097
:100260000100000001000100010001000100010087
:10027000010000000000000000000100330236020F
:10028000370233002F023002260227021F0201002C
:100290001E022F0030000100AA0001000000000033
:1002A0000000010001000100010001000100000048
:1002B0002E002E02220201000100010001000100B7
:1002C0000100A90000000000000001000100010081
:1002D0000100010001000000E20101000100010035
:1002E0000100010001000100010001000000000008
:1002F00000000100400041004200430001003D00B9
:100300003E003F00440001003A003B003C00450035
:10031000010001000000000000005400240025003E
:100320002600570027001E001F0020005600550021
:1003300021002200230067000100010000000000EE
:1003400000000100010001000100010001000100A6
:100350000100000001000100010001000100010096
:100360000100010000000000000001000100330254
:1003700029000100010022023800280001000100CC
:10038000010001001E02010001002B00000000001E
:10039000000001000100010001004C004152E30097
:1003A0000100010001004052010036343731007C69
:1003B000000001000000000000000000000000003C
:1003C00000002A2B280000000000000000000000B0
:1003D000000000000029000000002C1E3420212213
:1003E00024342627252E362D3738271E1F2021227C
:1003F000232425263333362E37381F0405060708F5
:10040000090A0B0C0D0E0F101112131415161718E4
:10041000191A1B1C1D2F3130232D35040506070822
:10042000090A0B0C0D0E0F101112131415161718C4
:10043000191A1B1C1D2F3130354C00000000000024
:1004400000000000000000000000000000000000AC
:1004500000000000000000000000000000007E0F0F
:1004600000D4FFFFFFC7000000781A0346006500B4
:10047000720072006900730020007300770065004D
:1004800065007000000008034400500042000000B6
:100490000403090409023B00020100A0FA09040058
:1004A000000103010100092111010001224400079C
:1004B000058103080001090401000103000000098F
:1004C0002111010001227B00070582032000011297
:1004D00001000200000008ABC2393901000102002E
:1004E0000105010902A10185020901A100050919FF
:1004F00001290815002501950875018102050109EA
:100500003009311581257F95027508810609381556
:1005100081257F950175088106050C0A3802158131
:10052000257F950175088106C0C005010980A101DC
:10053000850319012AB700150126B700950175102A
:100540008100C0050C0901A101850419012AA0023E
:10055000150126A002950175108100C0050109064C
:10056000A101050719E029E7150025019508750186
:1005700081029501750881010507190029FF150001
:1005800026FF009506750881000508190129051543
:10059000002501950575019102950175039101C032
:1005A00011241FBECFEFDAE0DEBFCDBF11E0A0E027
:1005B000B1E0E0E7F0E502C005900D92AE3CB10776
:1005C000D9F722E0AEECB1E001C01D92A63CB20723
:1005D000E1F70E9478150C9436280C9400008830BE
:1005E000B0F46830A0F4453090F498E2899FF001AF
:1005F000112485E0689FE00DF11D1124E40FF11D29
:10060000EE0FFF1FE65CFE4F85919491089581E007
:1006100090E008950E94EF0208959C013A952115FB
:100620003F4130F5BC0166277270AC01442754701D
:100630009C012227387094FF0FC090FF02C080E118
:1006400001C080E0672B09F08062452B09F08064CF
:10065000232B79F080680895892F8170672B09F02A
:100660008260452B09F08460232B19F0886008957F
:1006700080E00895CF93DF93EB010E940D03FE010C
:100680000995DF91CF910895CF93DF93EC01805EC0
:100690009109089710F0209719F465EC75E002C0F5
:1006A00066E078E0CE010E943A038C2F0E94260576
:1006B000DF91CF910895CF93DF93EC010E947005F5
:1006C000CE01805E9109089710F0209719F46CEC28
:1006D00075E002C06DE078E0CE010E943A03DF9140
:1006E000CF9108950F931F93CF93DF938C01EB016C
:1006F0000E944403209741F08FE99FE00197F1F7B2
:1007000000C000002197F6CFC8010E945B03DF9173
:10071000CF911F910F9108958933910519F060E0F1
:1007200070E002C060E570E00E947203089581E00D
:10073000089581E008950E94990308950E949B0303
:1007400008950E949903089508950E94A4030895AE
:10075000A6E0B0E0EEEAF3E00C94922749835A83D6
:100760009E833091D50189819A81311115C03E81D6
:10077000332359F0222349F00E947709182F682F5C
:1007800089819A810E94530903C00E946509182F2C
:1007900069817A81812F04C00E94770969817A81F9
:1007A0000E9467102696E3E00C94AE27FC01262FEA
:1007B0004081518162817381848195810E94A80367
:1007C0000895CF93DF93EC0161E00E94D603BE0150
:1007D0000E949E03DF91CF910895CF93DF93EC01A8
:1007E00060E00E94D603BE010E94A503DF91CF9175
:1007F000089521E030E0A90102C0440F551F8A95F9
:10080000E2F7CA010E947A080895CF93C82F81E0C9
:1008100090E00C2E02C0880F991F0A94E2F70E9404
:10082000BF0D8C2F0E94F903CF91089581E00895A8
:100830000E9416040895CF93C82F0E942A088C2F77
:100840000E9418042FEF84E39CE0215080409040E8
:10085000E1F700C00000CF91089581E00E941B04E1
:100860000E94F21E089580E00E941B040E94031F54
:1008700008950F931F93CF93DF938C0161E00E9443
:10088000D603EC01B8010E94A103882309F450C0EB
:10089000B801CE010E94A015882309F449C0B8010F
:1008A000CE010E943B1C882309F442C0B801CE014E
:1008B0000E94A0178823E1F1B801CE010E947617AB
:1008C0008823B1F1B801CE010E94A511882381F1DE
:1008D000F8018581882341F1C3308CE7D807D1F036
:1008E00040F4C115FCE7DF0791F0C130DC47A1F00F
:1008F0001BC0CB35ECE7DE07A9F0CC35FCE7DF0702
:1009000071F0CA35DC4781F40E949A0D0DC00E9437
:100910002D040EC00E94A20D0E94330409C00E9443
:10092000900D02C00E949E0DC8010E94970301C055
:1009300080E0DF91CF911F910F9108950E94001EDA
:100940000E94BE0408950E94C2040E94091E0895D8
:1009500081E008950895CF93DF93D82F0E94A804D3
:10096000C82F882319F08D2F0E94AA048C2FDF91A5
:10097000CF91089508950E94AB04089580E00E94ED
:10098000BB0408950E94831C0E94BB040895CF936A
:100990000E94831CC82F8091D001C81779F0C093A2
:1009A000D0010E94951E6093D1017093D201809373
:1009B000D3019093D4018C2F0E94BB04CF91089552
:1009C000ADE0B0E0E6EEF4E00C9493274887598759
:1009D0006A877B878C879D8791110E94CC0CCE0102
:1009E000019627E0FC0111922A95E9F726E0FE0125
:1009F0003896DC0101900D922A95E1F72D812111A5
:100A00000AC029813A814B815C816D817E818F8111
:100A10000E94130C04C00E94E1038111F2CF2D96B5
:100A2000E2E00C94AF27FC012481213021F4808185
:100A300091810E94A9090895662319F00E94101956
:100A400002C00E946B190E94E2190895CF93882377
:100A500009F444C0C82F8CEF8C0F813A70F48C2FAE
:100A60000E940C1D882329F08C2F0E944F1D0E948C
:100A70002E0D8C2F0E94471D0CC080E28C0F8830F9
:100A800058F4C77081E001C0880FCA95EAF70E9448
:100A9000AC0C0E942E0D22C0EBE5EC0FE33040F4CD
:100AA000F0E0E157FE4F808190E00E94B31C16C039
:100AB000E8E5EC0FEB3150F4F0E0EE0FFF1FE75AE2
:100AC000FE4F808191810E94D81C08C083E38C0F67
:100AD000833120F461E08C2F0E941C05CF91089592
:100AE000882381F19CEF980F913A18F40E944F1DD2
:100AF0000DC090E2980F983060F4877091E001C0CB
:100B0000990F8A95EAF7892F0E94B20C0E942E0D48
:100B100008959BE5980F933028F480E090E00E94C0
:100B2000B31C089598E5980F9B3128F480E090E07D
:100B30000E94D81C089593E3980F933118F460E055
:100B40000E941C0508951F93CF93DF93182FEB018C
:100B50000E942605209741F08FE99FE00197F1F769
:100B600000C000002197F6CF812F0E947005DF9111
:100B7000CF911F910895893319F060E070E002C0B1
:100B800060E570E00E94A3050895882321F00E948B
:100B9000AC0C0E942E0D0895882321F00E94B20C07
:100BA0000E942E0D0895A0E0B0E0E9EDF5E00C9470
:100BB0008D277C01162FC72FFC01D5810681029558
:100BC0000F700E94A20C8823F9F0DD23E9F08C2F2E
:100BD000807F803461F080E2810F8830A8F08C2F14
:100BE000807E803221F4123078F0002369F0809109
:100BF0009B0282FF09C082E00E94640D0E94A20C49
:100C000091E0D82ED92601C0D12CCC2EC2948FE0F1
:100C1000C8228C2D90E08C30910508F09CC1FC011D
:100C2000EA5AFF4F0C947D278C2F807FCF7088234A
:100C300011F0C295C07FDD2399F0CC2309F477C170
:100C400080E2810F883010F0111104C08C2F0E94B7
:100C5000AC0C03C08C2F0E94BF0C0E942E0D67C1EC
:100C6000812F0E947005CC2309F475C180E2810FA9
:100C7000883038F1112329F18C2F0E94C50C24C033
:100C80008C2F807FCF70803211F0C295C07F1123EE
:100C900019F0113099F13CC080919B0282FD17C080
:100CA000DD2349F0CC2329F08C2F0E94AC0C0E944C
:100CB0002E0D80E03DC180E00E947005CC2309F438
:100CC0004AC18C2F0E94B20C0E942E0D44C1DD231C
:100CD00049F0002309F1013009F03DC18C2F0E9439
:100CE000D60C39C1011137C18C2F0E94CC058C2F35
:100CF0000E94E20C8C2F0E94370D2DC1DD2321F0C4
:100D0000063008F028C108C0053008F024C115C01D
:100D1000DD2331F001110BC18C2F0E94C5051BC1D1
:100D2000002359F0193309F013C1FFEF27EE83E0D8
:100D3000F15020408040E1F709C18C2F0E94CC0582
:100D40000AC18C2F86958695837019F0813061F0E9
:100D500002C1DD2321F0812F9C2F937002C080E01F
:100D600090E00E94B31CFFC0DD2321F0812F9C2F57
:100D7000937002C080E090E00E94D81CF4C06D2FF8
:100D8000812F0E941C05EFC08C2F8370B1F5D1110B
:100D9000E6C0412F429546954770440F440F812F7E
:100DA0008F7090E09C01042E02C0220F331F0A9422
:100DB000E2F714FF0AC08FE090E002C0880F991F8D
:100DC0004A95E2F78095909502C080E090E0C69544
:100DD000C695C370822B932BC23049F058F4C130B2
:100DE00019F00E948608BBC00E947D08B8C00E940E
:100DF0008F08B5C00E947A08B2C0DD2319F08C2F8D
:100E0000817001C08695882309F4A9C0412F4295BD
:100E100046954770440F440F812F8F7090E09C01DE
:100E2000042E02C0220F331F0A94E2F714FF0AC0F7
:100E30008FE090E002C0880F991F4A95E2F78095F5
:100E4000909502C080E090E0C695C695C370822B55
:100E5000932BC23049F058F4C13019F00E94EE08CB
:100E60007EC00E94E5087BC00E94F70878C00E94FF
:100E70009B0875C0CF70DD2339F08C2F0E94B3081A
:100E8000812F0E94C5056BC0812F0E94CC058C2F3D
:100E90000E94C30864C0123F21F128F4103F41F0C2
:100EA000113FC1F040C0133F19F1143F79F03BC02E
:100EB000DD2341F0053008F04EC08C2F8F710E9469
:100EC000D50849C0063008F046C0F7CF80919B0294
:100ED00082FD18C0DD2339F08C2F8F710E94B3087A
:100EE0003AC0DD23C9F38C2F8F710E94C30833C031
:100EF000DD2329F08C2F8F710E94A7082CC00E943F
:100F0000A20829C0DD2331F063E08C2F8F710E948D
:100F1000460D21C081E00E94640D0230E0F082E0C5
:100F20000E94640D18C0DD2331F00023A9F2812F47
:100F30000E94260510C00023B1F2193349F49FEF37
:100F4000E7EEF3E09150E040F040E1F700C0000030
:100F5000812F0E94700588EF8C0D843020F40E9450
:100F6000831C0E94BB04DD2089F00E949E0C80FD42
:100F70000DC0F70115820E94980C0E94B308C701AA
:100F80000E94E3070E94980C0E94C308CDB7DEB709
:100F9000E8E00C94A9270F931F93CF93DF93EC0104
:100FA000688179818D810E94B4098C010E940009B9
:100FB0000E946B08B801CE010E94D305DF91CF914A
:100FC0001F910F910895CF93DF93FC012481222379
:100FD000D1F0EC010E94390481110FC00E94A20CD3
:100FE000882389F08D81882371F080919B0282FF94
:100FF0000AC082E00E94640D06C0CE010E94CB07A9
:10100000CE010E94ED03DF91CF910895882321F056
:101010000E94BF0C0E942E0D0895882321F00E948B
:10102000C50C0E942E0D089580E090E00E94B31C34
:1010300080E090E00E94D81C0E94CC0C0E942E0DF3
:101040000E94011A0E94E21908950E94571D0E94F1
:10105000140808950E94BC0C0E94250808959295DA
:101060009F70963079F010F4925001C09A509230EF
:1010700068F4803F69F018F4883E40F409C0843F6A
:1010800029F406C0883E20F0813F11F080E00895E9
:1010900081E00895FC012481222339F0808191812F
:1010A0000E94A9090E942F08089580E00895A6E0F3
:1010B000B0E0EDE5F8E00C9493272696E2E00C947E
:1010C000AF27A7E0B0E0E7E6F8E00C949327279677
:1010D000E2E00C94AF27089508950E946C080895EB
:1010E0000E946D0808950E9470089093ED0180930E
:1010F000EC0108950E94730808952091EC0130914D
:10110000ED01822B932B0E94730808952091EC012E
:101110003091ED01822393230E947308089520915A
:10112000EC013091ED01822793270E947308089506
:101130000E946C0808950E9498089093EB01809398
:10114000EA01089580E090E00E949B08089521E064
:1011500030E0A90102C0440F551F8A95E2F7CA0189
:101160000E949B08089521E030E002C0220F331F47
:101170008A95E2F78091EA019091EB01822B932B03
:101180000E949B08089521E030E002C0220F331F27
:101190008A95E2F7209530958091EA019091EB01D4
:1011A000822393230E949B08089521E030E002C02F
:1011B000220F331F8A95E2F78091EA019091EB01AB
:1011C000822793270E949B0808952091EA0130917D
:1011D000EB01822B932B0E949B0808952091EA013A
:1011E0003091EB01822393230E949B080895209164
:1011F000EA013091EB01822793270E949B08089512
:101200000895962F9770A1E001C0AA0F9A95EAF76A
:1012100093E0769567959A95E1F7660F771F660FCD
:10122000771FFA01E60FF71F40E050E0682F70E0EB
:1012300090819B01042E02C0369527950A94E2F70F
:101240002170219529272A23292721934F5F5F4F5A
:101250004430510569F70895FB01782F777023E03A
:10126000969587952A95E1F7880F991F880F991F02
:10127000E80FF91F40E050E080E0219130E0072EB8
:1012800002C0369527950A94E2F721703327042E81
:1012900001C0220F0A94EAF7822B4F5F5F4F443060
:1012A000510559F70895282F983070F4853060F46F
:1012B000862F622F70E025E0929F600D711D112432
:1012C00046ED51E00E9401090895983070F4853090
:1012D00060F4292F90E066ED71E035E0239F800DEA
:1012E000911D11240E942C09089580E00895A0E02A
:1012F000B0E0EDE7F9E00C948C277C010091EA0165
:101300001091EB018091EC019091ED01082B192BCC
:10131000CFE0D0E0CC24C394D12CC6010C2E02C067
:10132000880F991F0A94E2F780239123892B21F4D7
:10133000219798F7B12C07C0BC2EB7018C2F0E94C3
:1013400073100197A9F38B2DCDB7DEB7E9E00C94AC
:10135000A827CF93DF93EC010E947709BE010E947A
:101360007310DF91CF9108951F93CF93DF93EB011B
:101370009091D501992321F0CB010E94A90913C0B6
:10138000882349F0CB010E947709182F682FCE01DE
:101390000E94530904C0CB010E946509182FBE01A9
:1013A000812F0E947310DF91CF911F9108951F9399
:1013B000CF93DF93C091EE0117E08091EF01C81742
:1013C000A1F0D0E01C9FF0011D9FF00D1124E05111
:1013D000FE4F2081318142815381648175818681F4
:1013E0000E9461082196C770E8CFDF91CF911F91CD
:1013F0000895209128023091290240912A025091AB
:101400002B0260912C0270912D0280912E020E947D
:1014100061080895CF93DF9380912E0282958F709B
:1014200009F04EC080912D02882309F449C08091B3
:10143000EE014091EF015091290260912802C09184
:101440002A02D0912B0277E08417D1F190E0789FA7
:10145000F001799FF00D1124DF01A051BE4F1496C9
:101460002C911497222349F111962C911197251351
:1014700024C02C91261321C015962C91159721116B
:101480001CC012962D913C9113972C1B3D0B283CB0
:10149000310598F480912E028F70806180932E0226
:1014A000EA50FE4F80818F708061808388E292E0F5
:1014B0000E94E3070E94D70903C001968770C4CF3A
:1014C000DF91CF9108952091EE019091EF0157E0C7
:1014D0002917A9F030E0529FF001539FF00D11241D
:1014E000E051FE4F7181761306C07081781303C0FE
:1014F0007581741306C02F5F3F4F2770E9CF80E0DE
:10150000089581E00895A4E1B0E0E9E8FAE00C94E0
:1015100089278C0186E0F801DE011F9601900D926B
:101520008A95E1F7D80114968C9114971596EC9052
:1015300098E2A92E92E0B92E90912C02911118C038
:10154000882309F469C1EE20D9F1C8010E944A0834
:10155000F82E8823A9F187E0F801D50101900D92BA
:101560008A95E1F7C5010E9413050E940A0A51C13C
:10157000F801C080D18082809380F0902D0220916C
:101580002A0230912B02A401421B530BFF2009F4C5
:101590000BC1483C510508F0B7C0882309F43EC18F
:1015A00080912E02282F207F90912902222361F022
:1015B0009D1509F46DC0C8010E944A0881117BC0C5
:1015C000C8010E94E30728C19D1116C0909128020E
:1015D0009C1112C0E11010C08F70806180932E02A8
:1015E0000E94F90988E292E00E94E30780912E02AE
:1015F000D80116968C9317C0E11044C040E06D2DC1
:101600008C2D0E94630AE82E882379F088E292E00C
:101610000E94E307E8E2F2E087E0DF011D928A958D
:10162000E9F70E94F909F12CF9C0CF86D88A8F8595
:1016300098890E94A909292F22952F70243020F41F
:101640009F70223028F009C02A50223080F014C048
:10165000992349F0811107C013C0992321F0F801A3
:101660009681907F69F0805E883030F409C0803FB9
:1016700038F0815F833020F0C8010E94E307EF2C2F
:10168000FE2CCCC080912E02816080932E02CBCFA5
:10169000909128029C118FCFE1108DCF8683C801D5
:1016A0000E94E30787E0F801A8E2B2E001900D9202
:1016B0008A95E1F7AEC0EE2009F482CF20912E0288
:1016C000822F82958F7090E002978CF08091280293
:1016D00090912902998788879B868A8680912C021F
:1016E0008C871D862E87CE0108960E94E30787E02F
:1016F000F801A8E2B2E001900D928A95E1F70E940C
:101700000A0A0E94F90988C090912E02292F207F91
:1017100091F4682D9A8A898AA6017A899E2D0E9461
:10172000570888E292E00E94E30787E0F5011192F2
:101730008A95E9F776CF882309F470C08091290251
:101740008D1110C0809128028C110CC0E1100AC0CC
:101750009683C8010E94E30787E0F50111928A95FC
:10176000E9F75CC0C8010E944A08882309F428CF21
:10177000EE2009F425CF20912E02822F82958F70C2
:1017800090E002970CF4B3CF809128029091290247
:101790009A8389839C828B8280912C028D831E8206
:1017A0002F83CE010196A1CF483C510528F588230F
:1017B00099F1FE2CEE2009F403CF80912902D81272
:1017C0000DC0809128028C1109C087E0F801A8E2C1
:1017D000B2E001900D928A95E1F720C0C8010E9405
:1017E0004A08811184CF80912E02816080932E025D
:1017F000C8010E94E30712C0682D9A8A898AA6014F
:101800007A899E2D0E94570887E0D5011D928A95FE
:10181000E9F70E94F90902C0FF24F3948F2D649622
:10182000ECE00C94A527AEE0B0E0E9E1FCE00C941C
:101830009227288739874A875B876C877D878E87C1
:10184000CE0108960E94830A882361F06C85662386
:10185000A9F1288539854A855B857D858E850E941D
:1018600061082CC087E0FE013896DE0111960190D8
:101870000D928A95E1F76C85662301F12091EF01C5
:1018800030E0C9010196877099274091EE0150E040
:1018900084179507E1F16D8397E0929FD001939FA4
:1018A000B00D1124A051BE4FFE01319601900D9252
:1018B0009A95E1F78093EF010E94D70917E0809194
:1018C000EE019091EF01891779F1189FC001112461
:1018D00080519E4F0E94830A882331F1E091EE01EE
:1018E0001E9FF0011124E051FE4F20813181428181
:1018F00053816481758186810E9461088091EE0127
:1019000090E00196877099278093EE01D8CF0E94CE
:101910002A081092EF011092EE01E8E2F2E087E06F
:10192000DF011D928A95E9F72E96E3E00C94AE272D
:101930008091370286958695869508958091370225
:101940008770089590913702977081E009F480E0E4
:10195000089580914302089590914302892B8093CA
:101960004302089580959091430289238093430216
:101970000895809343020895109243020895909130
:101980004202892B809342020895809590914202F1
:101990008923809342020895109242020895089587
:1019A0000E94CF0C08950E94D00C089590913902A6
:1019B000292F2823821729F0982B909339020E940F
:1019C000D30C089590913902292F282331F0809566
:1019D0008923809339020E94D30C089580913902A3
:1019E000882329F01092390280E00E94D30C0895D8
:1019F0000F931F93CF93DF9300910001109101018A
:101A0000C091430280914202C82B80913902882301
:101A100031F0C82B0E94FD1C81110E94EE0CF801D0
:101A2000C083C0910001D091010148E050E06FE215
:101A300072E0CE010E94CE27892B59F088E0FE018A
:101A4000AFE2B2E001900D928A95E1F7CE010E94DB
:101A50009A1CDF91CF911F910F9108950E94F80C6D
:101A600008950E94CF0C08950E94310D0895909121
:101A70003802292F282331F080958923809338025A
:101A80000E94340D08950E94CF0C089590919B02FE
:101A900092FF11C098E0899F90011124262B20937A
:101AA00037020E94B3088091370286958695869505
:101AB0000E94430D08950E94B308089510923702C2
:101AC00080E00E94430D089590913702809589230C
:101AD00080933702282F277069F4981759F0909156
:101AE0009B0292FF07C08695869586950E94C30843
:101AF0000E945E0D089590919B0292FB222720F98F
:101B0000281769F080FB92F990939B0280919A02CA
:101B100090919B020E94CA0D82E00E94640D08957C
:101B200080919B0282FB882780F991E089270E949F
:101B30007B0D089581E00E947B0D089580E00E9456
:101B40007B0D08956FEF7FEF80E090E00E942028EA
:101B5000089580E090E00E94EC2721E0853E9E4FB2
:101B600009F020E0822F089582E090E00E94E427AF
:101B7000089583E090E00E94E42790E00895682FA4
:101B800083E090E00E940228089584E090E00E94A3
:101B9000EC270895BC0184E090E00E94202808957D
:101BA000AB01BC018FE090E00E9414280895AB01C6
:101BB000BC0183E190E00E941428089560E070E089
:101BC000CB010E94D70D089560E070E0CB010E9428
:101BD000D00D0E94DE0D0895A8E0B0E0E2EFFDE038
:101BE0000C94932765EE7EEF80E090E00E94202821
:101BF00060E082E090E00E94022881E090E0909313
:101C0000ED018093EC010E94BF0D60E074E184E07F
:101C100090E00E94202860E086E090E00E94022888
:101C200060E087E090E00E94022840E050E0BA01C6
:101C300088E090E00E94142860E083E290E00E9437
:101C4000022860E08CE090E00E94022860E08DE0D5
:101C500090E00E94022819821A821B821C821D8237
:101C60001E821F82188648E050E067E170E0CE01D6
:101C700001960E94F22740E050E0BA018FE190E027
:101C80000E9414280E94E40D2896E2E00C94AF27ED
:101C90000E94EC0D0895682F8EE090E00E940228CB
:101CA0000895A6E0B0E0E7E5FEE00C9491270E94DD
:101CB000891E8C01809144029091450208171907F2
:101CC00081F019821A820E94891E682F49815A81E7
:101CD000792F80E090E00E94E00410934502009389
:101CE00044022696E4E00C94AD270E94891160938B
:101CF0005202709353028093540290935502609362
:101D00004E0270934F0280935002909351020895B7
:101D100081E008950E947F13089508950E948D0E1A
:101D200008950E948D0E08950E94910E08950E94BC
:101D30008D0E08950E94970E08950E948D0E0895AD
:101D400083EA91E10E948D150E949D0E0E949A0ED9
:101D500008950E948E0E0E948D0E08950E94A90D76
:101D6000811102C00E94480E0E94B40D8093560259
:101D70000E94C50D90939B0280939A020E945B176C
:101D80000E94B90D0E947A088091EA019091EB01BE
:101D90000E94980808950E94801E0E9463110E946C
:101DA00085130E9495120E94AE0E0E94BA040E94F2
:101DB000F0150E945E170E9497130E94940E0895DA
:101DC000A6E0B0E0E6EEFEE00C948A270E94880EC2
:101DD000811103C00E94510E53C00E94EA1286E492
:101DE000E82E82E0F82E670100E0F60111916F0104
:101DF000802F0E94B81181270F5F083019F08823C7
:101E0000A1F302C0882331F38091560281FD0E9424
:101E1000BE110E948A0EA82E10E099249394812F5F
:101E20000E94B811B82EF701C080C82609F100E061
:101E3000DD24D3948C2D8D21A9F0AA2099F009835B
:101E40001A830E94891E9C838B839D8291E08B2D37
:101E50008D2109F490E049815A816B817C818D81CB
:101E60000E94E0040F5FDD0C053021F7F701B0821E
:101E70001F5FFFEFEF1AFF0A183089F60E94750EF8
:101E80000E947F130E94231A0E94C7042696EBE04B
:101E90000C94A6271F93CF93DF930E947810EC0138
:101EA000C11580E5D807E8F5C11590E4D90708F019
:101EB000A8C0C03ED10530F5CD3CD10508F094C096
:101EC000C83AD10578F4C53AD10508F083C0C130CD
:101ED000D10509F47CC008F4F2C0C430D10508F083
:101EE000F1C0EDC0C33CD10508F0E9C0C85AD0E04C
:101EF000CC0FDD1FCE56DE4F0990D881C02DCE010C
:101F00009464E1C0C11580E2D80708F0CBC0C115C8
:101F100091E0D90708F06BC0C83ED10508F4D2C0E3
:101F2000CEC0C03682E5D80728F5C03492E5D9077F
:101F300008F079C0C03282E5D80708F06CC0C1153E
:101F400092E5D90708F481C04C2F4695469580E26A
:101F5000489FA0011124C37021E030E0C90102C0F4
:101F6000880F991FCA95E2F7EA01C82BD92BCE0139
:101F70009D68A9C0C03A82E5D807B8F48C2F8F714C
:101F8000C03892E5D90708F07BC08695869590E227
:101F9000899F90011124C37081E090E002C0880FF6
:101FA000991FCA95E2F79A6868C0C03C82E5D807D5
:101FB00008F46DC0C03E92E5D90708F080C0CF712B
:101FC000DD27DC2FCC27CE01806F906A7CC081E0BA
:101FD00090E079C0C55AD0E0C853DE4F8881C82F41
:101FE000D0E0CE0190646FC0CE0190656CC08D2FA3
:101FF0000E941411182FCE0199270E9478101F718A
:102000005CC0CE0199270E947810CC27DF70D06A7F
:102010008C2B9D2B58C0CF71D0E0DC2FCC27CE016C
:10202000816F906A50C08C2F8F718695869590E253
:10203000899F90011124C37081E090E002C0880F55
:10204000991FCA95E2F79C6818C08C2F8F710E9467
:10205000141195E0D695C7959A95E1F7CF70D0E029
:10206000DC2FCC27282F30E084FF05C084E0220F2E
:10207000331F8A95E1F7D069CE01822B932B23C0C1
:1020800090E0D82FCC27CE01846F906A1CC08C2F93
:102090008F710E9414118F7190E0D82FCC27CE0140
:1020A000906211C08D2F8F710E941411182FCE01D4
:1020B00099270E9478101F719062912B04C080E0D4
:1020C00090E001C0CE01DF91CF911F91089578304B
:1020D00038F4653028F4462F672F0E940A030895CC
:1020E00080E090E008950E9467100E944A0F0895D2
:1020F0008238910569F1B0F48133910509F475C016
:1021000048F48932910509F467C08A32910509F4CF
:1021100071C008958533910509F459C0893391053B
:10212000B9F00895833E910589F138F4803E910518
:10213000D1F0823E910529F10895863E9105C9F1BD
:10214000873E9105D9F1843E910509F06CC027C006
:1021500020919A0220FD57C021FD55C020919B027D
:1021600023FD5BC0089580919A0280FD48C0809154
:102170009B0280FF48C080919A0284FD46C083EE96
:1021800051C080919A0282FF3CC0F5CF80919A02A3
:1021900082FD37C080919B0280FD35C0ECCF8091DD
:1021A0009B0281FF36C080919A0284FD2EC087EE8B
:1021B00039C080919A0283FF2AC0F5CF80919A029C
:1021C00083FD25C080919B0281FD23C0ECCF8091CF
:1021D0009A0285FD22C01FC080919A0285FD1BC016
:1021E00080919B0283FF19C00AC080919A0286FDEC
:1021F00016C017C080919A0286FD13C010C089E3F3
:1022000011C082EE0FC080EE0DC080E00BC086EEE4
:1022100009C084EE07C085E305C089E203C08AE2F5
:1022200001C081E390E0089590919A0292FF10C05E
:1022300041E0282F2471243009F040E031E0282FBC
:102240002871283009F030E0431711F02CE0822784
:1022500093FF10C041E0282F2471243109F040E0A1
:1022600031E0282F2871283109F030E0431711F0B0
:102270002CE0822730919B0230FF10C051E0282FC4
:102280002171213009F050E041E0282F28712830D9
:1022900009F040E0541711F029E0822731FF10C007
:1022A00041E0282F2171213109F040E031E0282F51
:1022B0002871283109F030E0431711F029E0822716
:1022C00094FD877E089510929C0210929D021092B8
:1022D0009E0210929F020895CF92DF92EF92FF929A
:1022E0006B017C010E947F1381110EC00E94951E1C
:1022F000C61AD70AE80AF90AC0929C02D0929D0237
:10230000E0929E02F0929F02FF90EF90DF90CF90BC
:1023100008950F931F930E947F13882319F00E9442
:10232000951E0EC00E94951E00919C0210919D0268
:1023300020919E0230919F02600F711F821F931F98
:102340001F910F91089580E00895CF939C01205E26
:1023500032452032310540F4FB01C581C11105C071
:102360008F710E94050401C0C1E08C2FCF910895A8
:10237000E82FF0E0E755FD4F808108950895089516
:102380000E94BF1108950E94C01108950E94BF11BC
:1023900008950E94C61108950E94BF110895A4E0F7
:1023A000B0E0E5EDF1E10C9491270E947F1360917C
:1023B000B1028823E9F119821A821B821C82862FBE
:1023C00090E08E010F5F1F4FB80187559D4F0E940F
:1023D000A513882389F08091A00290E044E050E0AA
:1023E000B80187559D4F0E94CE2721E020935702C8
:1023F000892B69F410E019C0809157028823D1F32A
:1024000084E0F80111928A95E9F710925702E09161
:10241000A002F0E0E755FD4F89819A81AB81BC8134
:1024200080839183A283B38311E00E94C3110DC006
:1024300070E067557D4F8091A00290E087559D4FD9
:102440000E942E140E94CC1110E0812F2496E4E00B
:102450000C94AD27CF93DF9342E051E0A1E0B0E0D0
:1024600020E030E0FA01E20FF31F80818F3FA1F0FE
:10247000E82FE295EF70F0E061A18F70ED0102C0EE
:10248000CC0FDD1F8A95E2F7CE019C2F9095962305
:1024900091A392A1892B82A32F5F3F4F2530310555
:1024A00009F74B5F5F4FD1E046315D07C9F6DF9119
:1024B000CF9108950F931F93CF93DF93EC01062FD5
:1024C00010E085E0689FB001112440E050E0B1E0E9
:1024D000A0E0CA01860F971F8E5F9E4FFC0190817E
:1024E0009F3F89F0292F22952F7030E0F90120A11C
:1024F00030E09F7002C0359527959A95E2F720FD50
:1025000002C08B2F02C080E090E0A82BBB0F4F5F72
:102510005F4F45305105E9F6F801EC0FFD1FA08330
:10252000DF91CF911F910F910895A4E1B0E0EBE905
:10253000F2E10C94932780911601811125C084E16A
:10254000E5E4F1E0DE01119601900D928A95E1F744
:10255000CE01019642E051E0BE016B5E7F4F20E06C
:1025600030E0FA01E20FF31FDC01A20FB31FAC91C0
:10257000A0832F5F3F4F2530310599F705964B5FBC
:102580005F4F8617970759F780911601811102C096
:1025900094E001C090E09093B10284E0891B8093A5
:1025A000A0020E942A1288E0E9EAF2E0DF01982FF7
:1025B0001D929A95E9F7E1EAF2E0DF011D928A9512
:1025C000E9F784E00E9428130E94C9116496E2E0B2
:1025D0000C94AF27A8E0B0E0E0EFF2E10C94902774
:1025E0008E010F5F1F4F88E0F80111928A95E9F77D
:1025F000F12C6F2DC8010E945A12F394F4E0FF12DF
:10260000F8CF48E050E0B80181EA92E00E94CE277E
:1026100021E0009709F420E0892B41F088E0F801DF
:10262000A1EAB2E001900D928A95E1F76091B102C2
:1026300070E067557D4F44E081EA92E00E942913E3
:10264000182F0E94CF11812B2896E5E00C94AC271F
:102650000895EF92FF920F931F93CF93DF937C0126
:102660008B01C42F222351F081E080935A020E94F3
:10267000891E909359028093580204C080915A0297
:10268000811102C080E01AC08091580290915902D5
:102690000E94A11E0597B0F3D0E0AE01B701C801BA
:1026A0000E94CE27892B39F0AE01B701C8010E94E4
:1026B000DB2781E001C080E010925A02CDB7DEB77F
:1026C000E6E00C94AB271F93CF93DF93C8ECD0E0E8
:1026D0000E946327182F81110AC08FE39CE901979C
:1026E000F1F700C00000219799F70E945E27812F23
:1026F000DF91CF911F91089580915E02089580919E
:102700005D0208950E947F1308950E9463138093D1
:102710005D020E94821380935E020E947C1380936C
:1027200016010E947F1381110E94DD1308950E94FB
:102730007F13811102C00E94E013089581E09091FF
:102740005F029A3008F080E008950F931F93CF93B3
:10275000DF93EC018B0180915F028A3038F4B8017D
:10276000CE010E942B1481111DC00AC080915B0212
:1027700090915C020E94A11E843F914080F715C099
:1027800080915F028F3F19F08F5F80935F0280918D
:102790005F028A3060F00E94891E90935C028093F1
:1027A0005B0203C010925F0202C080E001C081E0C2
:1027B000DF91CF911F910F9108950E94641F08959A
:1027C0000E94671F0895A0E0B0E0E9EEF3E10C94E9
:1027D0008E277901C82F880FDD0B41155105A9F00F
:1027E000FE0193E0EE0FFF1F9A95E1F7E95EFE4FC1
:1027F00081819281805A9D4F208130E0421753079A
:1028000008F49A01A9010E94DB27CE010E944F2003
:10281000D82E8823D1F001151105B9F083E0CC0F33
:10282000DD1F8A95E1F7FE01E95EFE4F438150E02E
:102830000417150708F4A801C95EDE4F6C817D817D
:10284000605A7D4FC7010E94DB278D2DCDB7DEB7C3
:10285000E7E00C94AA270E94281508950E943F15CE
:102860000895A4E0B0E0E7E3F4E10C9491276091CF
:1028700075027091760280917702909178020E94A1
:10288000B01E643671058105910528F10E948911F9
:10289000DC01CB010296A11DB11D89839A83AB8314
:1028A000BC8300E010E020E030E044E050E0BE01F6
:1028B0006F5F7F4F82E00E94E313182F882361F03F
:1028C0000E94951E60937502709376028093770242
:1028D0009093780201C011E0812F2496E4E00C94DB
:1028E000AD27A0E0B0E0E7E7F4E10C948B277C0192
:1028F0005B016A010E949E13811103C001E010E098
:1029000002C00AE010E0C1E0D0E0B501C701F60165
:102910000995811115C021960C171D0794F0CC9FC5
:102920009001CD9F300D300D112480E090E045E303
:102930004A95F1F70000019682179307C1F7E5CF9A
:1029400081E0CDB7DEB7EAE00C94A727A5E0B0E0C0
:10295000ECEAF4E10C948B275B01E090CB01F09062
:10296000CC0101E010E09E012B5F3F4F40E050E0C2
:1029700060E070E080E00E94E313182F882309F4E0
:102980003EC067018FEFC81AD80A6091710270913A
:10299000720280917302909174020E94B01E64369C
:1029A00071058105910518F104E010E09E012F5F8B
:1029B0003F4F40E050E060E070E081E00E94E313B0
:1029C000182F64E070E0C6010E945F1791E02D812E
:1029D000281390E0192351F10E94951E6093710213
:1029E00070937202809373029093740211C064E03A
:1029F00070E0C6010E945F179D818913D5CFF70152
:102A000081819281A381B48189839A83AB83BC83C2
:102A1000112361F089819A81AB81BC8180936D0221
:102A200090936E02A0936F02B093700280916D023A
:102A300090916E02A0916F02B0917002F5018083B7
:102A40009183A283B383812F2596EAE00C94A72774
:102A50000F931F93CF93DF93EC018B0146EA54E170
:102A60000E947114882331F041E354E1B801CE0192
:102A70000E947114DF91CF911F910F9108950F93D0
:102A80001F93CF93DF93C091CB01D091CC01CE01A6
:102A9000019624E0FB01DC0101900D922A95E1F7FB
:102AA00064E070E00E945F1788836D817E818F8172
:102AB00098850091690210916A0220916B02309111
:102AC0006C02601771078207930751F060936902E7
:102AD00070936A0280936B0290936C020E946C1157
:102AE000DF91CF911F910F9108950E94E00E0895FC
:102AF0000E94201E0E9412220E94A00E0E942C22E0
:102B00000E94CB0E0E9439220E943E220E9475151F
:102B10000E9458220E94A90EF7CF9093CF01809374
:102B2000CE010895FB012581222341F097FF06C0C5
:102B3000BC017F7780E090E00E94D81681E0089584
:102B40000F931F93CF93DF93EC018B01FB018581E2
:102B5000882321F10E94A90C8272FE01E053FC47F8
:102B6000E830F105D8F4EE59FF4F0C947D27882307
:102B700029F00E94081612C08823D9F30E94071674
:102B80000DC080E009C081E007C082E005C083E09D
:102B900003C084E001C085E00E94F915B801CE01B0
:102BA0000E949215DF91CF911F910F9108959091FE
:102BB000B302923071F48A3040F490E009966AE0F2
:102BC00070E00E946927875A01C086500E94BB05A9
:102BD00008950E94C71B089508950E94EC1508955A
:102BE0008CE090E00E94E4278093B3020E94ED15F0
:102BF0000895CF93C82F8093B302682F8CE090E0A4
:102C00000E9402288C2F0E94ED15CF9108950895FF
:102C100008950E94971C8093B2029091B302913064
:102C200029F481FF03C089E30E94BB050E94A90C1F
:102C30008093B4020E94BC0C0E94CC0C8091B30221
:102C40008230D9F038F48823A1F0813089F588E109
:102C500093E02CC0843019F1853051F58BE191E07F
:102C60000E948C0385E290E00E948C0388E290E051
:102C70001DC082EE0E9426051BC08091B20280FD1D
:102C800003C083E50E94BB0582EE0E9426058FE308
:102C90009CE90197F1F700C0000087E504C086EECB
:102CA0000E94BB0588E10E94BB0502C00E948C0304
:102CB0008FE39CE90197F1F700C00000089580912F
:102CC000B3028230E1F028F4882361F0813071F0A2
:102CD00023C08430F9F08530F9F488E290E00E9456
:102CE0008C031AC082EE0E94700516C08CE20E940E
:102CF000BB058091B20281FF0FC089E308C082EE5C
:102D00000E9470058091B20280FD06C083E50E949A
:102D1000BB0502C088E2FBCF8091B4020E94B90CCF
:102D200008958F929F92AF92BF92EF92FF920F936E
:102D30001F93CF93DF934B015C01D091B3028CE1E1
:102D4000E82EF12C07E010E021E0D501C4010E2CA3
:102D500004C0B695A795979587950A94D2F7C82F82
:102D6000CF70222369F0D43031F4CA3020F080E0F3
:102D70000E94D71505C0C11103C00430110524F409
:102D80008C2F0E94D71520E00150110984E0E81A29
:102D9000F1080F3F8FEF1807C1F6DF91CF911F9118
:102DA0000F91FF90EF90BF90AF909F908F900895FC
:102DB000CF92DF92EF92FF926115710521E18207B8
:102DC000910508F03FC06115710521E0820791056A
:102DD00020F02091B3022230A9F16B017C010E9406
:102DE0000916C114D10481E0E806F10428F18091AC
:102DF000B302811121C021E0E21AF108D701C60116
:102E000088279C7FAF70BB272AE0B695A79597953A
:102E100087952A95D1F7BC01CD0178528F4F9F4FEE
:102E20000E94911683E0D822EE24FF24C701B60148
:102E300074528F4F9F4F02C0C701B6010E94911676
:102E40000E945F16FF90EF90DF90CF9008950E9450
:102E5000A20D0895CF930E947C13811102C0C4E09B
:102E600001C0C0E08C2F0E94B81121E030E002C008
:102E7000220F331FCA95E2F790E02823392381E01F
:102E8000232B09F480E0CF9108950E94EA122FEFDE
:102E900086E791E0215080409040E1F700C00000BB
:102EA0000E94EA120E942A17882321F00E94271705
:102EB0000E94F21E08950E94451708950895FC018E
:102EC000680F791F8FEF91E3E617F70771F02191F3
:102ED000822728E030E087FF03C0880F892701C0E0
:102EE000880F21503109B9F7EFCF0895CF93DF93C1
:102EF00086319C4709F5EB010E94A90C9D8199231D
:102F000071F08A7A91E009F490E09093790281114E
:102F100002C089E201C085E30E94471D09C080917B
:102F20007902811102C089E201C085E30E944F1D30
:102F30000E942E0D80E001C081E0DF91CF910895C5
:102F4000CF93DF93FC01DB0115968C91882309F464
:102F5000DDC09F0130572332310508F0D8C0EF01A2
:102F60000E94C50D90939B0280939A02FE01E1504E
:102F7000F047E232F10520F4E659FF4F0C947D272B
:102F800080919A028160AAC080919B028860B2C041
:102F900080919A028260A2C080919A0220C08091A2
:102FA0009A0288609BC080919B021EC080919B0208
:102FB0008260A0C080919A02806190C080919A0244
:102FC00080628CC080919A02806488C00E942A0826
:102FD00080919A02806882C080919A0288608460A1
:102FE0007DC080919B028260816084C080919A0242
:102FF0008E7F74C080919B02877F7CC080919A02F3
:103000008D7F6CC080919A0220C080919A02877F48
:1030100065C080919B021EC080919B028D7F6AC01B
:1030200080919A028F7E5AC080919A028F7D56C0FD
:1030300080919A028F7B52C00E942A0880919A0246
:103040008F774CC080919A02877F8B7F47C0809199
:103050009B028D7F8E7F4EC080919A0282FB222739
:1030600020F991E0922790FB82F990FB83F936C01A
:1030700080919B02982F909591708E7F892B90FB69
:1030800081F938C080919A0286FB222720F991E0CD
:10309000922790FB86F922C00E942A0880919A020A
:1030A00087FB222720F991E0922790FB87F916C031
:1030B00081E001C080E00E944B0E1EC080919A0208
:1030C00084FB222720F991E0922790FB84F906C027
:1030D00080919A02982F909590FB80F980939A02A4
:1030E0000BC080919B0283FB222720F991E092275D
:1030F00090FB83F980939B0280919A0290919B02AE
:103100000E94CA0D0E942A0880E001C081E0DF9180
:10311000CF910895282F35EB2303C001112497FF89
:1031200003C08058910902C080589F4F892F08958D
:103130008091800280FF06C06091340170E0660FCC
:10314000771F26C081FF04C06091340184E005C070
:1031500082FF07C06091340188E0689FB0011124AC
:1031600017C090917F029923D1F060913301961797
:1031700088F72091340188E0289F90011124929FC4
:10318000A001939F500D112470E0CA010E9469278D
:103190006038710540F46115710519F406C068E0E6
:1031A00070E0862F08958FE7089581E0089580915B
:1031B000800280FF08C06091300170E075956795CE
:1031C0007595679521C081FF06C06091300170E060
:1031D0007595679519C082FF04C06091300170E059
:1031E00010C090917E02992399F060912F0196175B
:1031F000A0F780913001899FC001112470E00E94E6
:1032000069276038710540F46115710519F406C02D
:1032100061E070E0862F08958FE7089581E00895BA
:103220008D3C21F40E949818819504C08E3C29F4AD
:103230000E9498188093840208958F3C21F40E9484
:103240009818819504C0803D29F40E9498188093B5
:1032500083020895893D19F40E94D71805C08A3D5C
:1032600031F40E94D71881958093850208958B3D93
:1032700021F40E94D718819504C08C3D29F40E9446
:10328000D7188093860208959FE2980F983078F4BB
:1032900021E030E0A90102C0440F551F9A95E2F7E2
:1032A000CA0190918202892B8093820208958D3DFC
:1032B00021F48091800281600BC08E3D21F48091C9
:1032C0008002826005C08F3D29F480918002846075
:1032D0008093800208958D3C39F49091840297FF89
:1032E00035C01092840259C08E3C29F4909184021A
:1032F0001916BCF32BC0909183028F3C29F497FFE1
:1033000025C01092830249C0803D19F41916CCF3F0
:103310001DC090918502893D29F41916BCF41092C4
:1033200085023BC08A3D19F497FF10C0F8CF8B3D52
:1033300039F49091860297FF09C0109286022DC041
:103340008C3D21F4909186021916BCF39FE2980FF0
:10335000983080F421E030E0A90102C0440F551FED
:103360009A95E2F7CA018095909182028923809311
:10337000820213C08D3D21F4809180028E7F0BC0AC
:103380008E3D21F4809180028D7F05C08F3D29F410
:10339000809180028B7F80938002809183028111D3
:1033A00006C080918402811102C010927F02809138
:1033B0008502811106C080918602811102C010929F
:1033C0007E0208950E94891E20918302211104C06B
:1033D00020918402222321F090937D0280937C022D
:1033E00020918502211104C020918602222321F020
:1033F00090937B0280937A0281E892E00E94A51C60
:103400000895E1E8F2E086E0DF011D928A95E9F790
:1034100010927F0210927E02109280020895FC01A9
:10342000828181110DC0838181110AC08481811143
:1034300007C091E08581811101C090E0892F01C012
:1034400081E081700895A6E0B0E0E9E2FAE10C9431
:10345000922786E0E1E8F2E0DE01119601900D92FC
:103460008A95E1F7109283021092840210928502ED
:10347000109286028B81811104C08C81882309F40B
:1034800056C080917C0290917D020E94A11EAC01E9
:1034900090917F02992339F02091350130E0241773
:1034A000350758F044C0209136018AE0289F9001EA
:1034B00011242417350718F03AC09F3F19F09F5F79
:1034C00090937F021B81112361F00E9498181116BE
:1034D00014F09FEF01C091E0989F902D11249093DC
:1034E00083021C81112361F00E949818111614F0B8
:1034F0009FEF01C091E0989F902D1124909384023A
:1035000080918302882399F010918402112379F02D
:103510000E948A18811101C081E080938302812F6B
:103520000E948A18811101C081E0809384028D81FC
:10353000811104C08E81882309F456C080917A02DB
:1035400090917B020E94A11EAC0190917E02992372
:1035500039F02091310130E02417350758F044C08C
:10356000209132018AE0289F900111242417350709
:1035700018F03AC09F3F19F09F5F90937E021D8123
:10358000112361F00E94D718111614F09FEF01C0AB
:1035900091E0989F902D1124909385021E81112314
:1035A00061F00E94D718111614F09FEF01C091E04E
:1035B000989F902D112490938602809185028823F4
:1035C00099F010918602112379F00E948A188111D6
:1035D00001C081E080938502812F0E948A188111A9
:1035E00001C081E080938602BE016F5F7F4F81E85A
:1035F00092E00E94621D811105C081E892E00E9464
:103600000F1A81110E94E21986E0FE013196A1E8AD
:10361000B2E001900D928A95E1F72696E3E00C94D2
:10362000AE278F929F92BF92CF92DF92EF92FF923E
:103630000F931F93CF93DF93E82FF0E0E654FC4FF6
:10364000B490282F26952695269530E0F901E65A64
:10365000FB4FE4908770F12C082E02C0F594E7949C
:103660000A94E2F791E0E922FF24F901E65BFB4FBF
:10367000C490D12C082E02C0D594C7940A94E2F7C6
:10368000E1E0CE22DD24F901E65CFB4FC491D0E0FD
:1036900002C0D595C7958A95E2F7C170DD27062F40
:1036A00010E0E114F10471F081EE0E942605C801DA
:1036B000009741F0EFE9FFE03197F1F700C000001B
:1036C0000197F6CFC114D10439F44801B8018B2D0C
:1036D0000E94A305C8010EC086EE0E942605C801FF
:1036E000009799F3EFE9FFE03197F1F700C0000090
:1036F0000197F6CF009741F0EFE9FFE03197F1F73E
:1037000000C000000197F6CFCD2819F5EF2879F019
:1037100081EE0E9470050115110549F08FE99FE0C7
:103720000197F1F700C0000001501109F4CFCD2B33
:10373000F1F08CE20E94BB0581149104C1F0EFE925
:10374000FFE03197F1F700C00000F1E08F1A910817
:10375000F3CF86EE0E947005C8010097B9F2EFE939
:10376000FFE03197F1F700C000000197F6CFDF913D
:10377000CF911F910F91FF90EF90DF90CF90BF906E
:103780009F908F90089560E00E94111B0895982FDC
:103790009F709A50963010F0805D01C0895A0E9447
:1037A000C31B08950F931F93CF93DF93C42FD22F82
:1037B000FC0185818823B1F0409389020E94891E13
:1037C000909388028093870280E28C0F883008F003
:1037D0004DC0C77081E001C0880FCA95EAF70E940A
:1037E000C50544C080918902481330C0809187028A
:1037F000909188020E94A11E883C910538F510E244
:103800001D0FCD17B9F080E28C0F883040F4C770DF
:1038100081E001C0880FCA95EAF70E94CC051830F4
:1038200010F581E09D2F977001C0880F9A95EAF7F7
:103830000E94C505802F0E94BB051830B8F4D770D0
:1038400081E001C0880FDA95EAF70AC080E28C0FA8
:10385000883060F4C77081E001C0880FCA95EAF72C
:103860000E94CC0503C0802F0E94BB05DF91CF9141
:103870001F910F9108950F93FC01E851FC47E73029
:10388000F10590F5CB01E457FF4F0C947D2706E23C
:1038900021EE41EE6AE17CE723C007E225EE45EE2A
:1038A0006BE17CE71DC006E221EE40EE68E17CE7BB
:1038B00017C007E225EE44EE69E17CE711C006E29D
:1038C00021EE42EE6CE17CE70BC007E225EE46EE0E
:1038D0006DE17CE705C008E221E045EE6EE17CE7A2
:1038E0000E94D21B80E008C0FB018581882319F06B
:1038F0001092890201C081E00F9108959093900287
:1039000080938F0208950E947F13811103C08091DC
:103910008A020895E0918F02F0919002309729F089
:103920000190F081E02D0995089580E008950E94AE
:10393000831C0895E0918F02F0919002309721F05E
:103940000280F381E02D09950895E0918F02F091B6
:103950009002309739F022E0DC012C930680F78149
:10396000E02D09950895A3E0B0E0E9EBFCE10C94AB
:10397000932720918D0230918E0228173907A1F0EC
:1039800090938E0280938D02E0918F02F0919002CD
:10399000309751F023E029839B838A830084F1854B
:1039A000E02DCE01019609952396E2E00C94AF2715
:1039B000A3E0B0E0EEEDFCE10C94932720918B02A4
:1039C00030918C0228173907A1F090938C028093D4
:1039D0008B02E0918F02F0919002309751F024E039
:1039E00029839B838A830084F185E02DCE01019693
:1039F00009952396E2E00C94AF27E0910001F09145
:103A00000101329697E080E0915029F02191222324
:103A1000D9F38F5FF9CF0895882371F020910001C9
:103A200030910101F9013296285F3F4F919189173A
:103A300029F0E217F307D1F780E0089581E00895B7
:103A40009C01FC0132969FEF80E04191461789F07E
:103A50009F3F19F4411101C0982F8F5F8630A9F75D
:103A60009F3F39F0F901E90FF11D97FDFA95628347
:103A7000089508959C012A5F3F4FFC01428146133F
:103A800001C01282019682179307B9F70895682F33
:103A900080910001909101010E94201D0895682FDE
:103AA00080910001909101010E943A1D0895E091DA
:103AB0000001F0910101329686E0DF011D928A95A6
:103AC000E9F70895DC01FB0111969C911197818122
:103AD000981321C012968C911297882319F0928125
:103AE000891319C013968C911397882319F0938129
:103AF000891311C015968C911597882319F095811B
:103B0000891309C014969C91992339F081E024818E
:103B1000291304C002C081E001C080E081700895D3
:103B200008950E94901D089583E080933A0160916A
:103B30003701709138018091390190913A010E94CA
:103B4000911D0895811102C081E001C082E080933F
:103B50003A0160913701709138018091390190915B
:103B60003A010E94911D08950E94A21D089581E0CE
:103B700080933A0160913701709138018091390149
:103B800090913A010E94911D08950E94B71D0895D9
:103B900091E0811101C090E090933901609137016B
:103BA000709138018091390190913A010E94911DE4
:103BB000089580913901089580933801609137010B
:103BC000709138018091390190913A010E94911DC4
:103BD00008958091380108958093370160913701ED
:103BE000709138018091390190913A010E94911DA4
:103BF000089580913701089508950E94FC1D08954D
:103C00000E94FD1D08950E94FC1D08950E94FC1D48
:103C100008950E94FC1D0895CF930E94061E0E94E5
:103C2000EA120E94031EC0E08C2F0E94B81181117D
:103C300004C0CF5FC830C1F701C081E0CF910895C3
:103C400085B7806885BF85B7806885BF08951F9256
:103C50000F920FB60F9211248F939F93AF93BF9340
:103C600080919102811113C08091B5029091B602AA
:103C7000A091B702B091B8024196A11DB11D8093E9
:103C8000B5029093B602A093B702B093B802BF9169
:103C9000AF919F918F910F900FBE0F901F9018952D
:103CA0008091BD02843031F10E949E0410929102F5
:103CB00020E488E190E00FB6F894A8958093600026
:103CC0000FBE2093600083B7817F846083BF83B77A
:103CD000816083BF7894889583B78E7F83BF0FB64A
:103CE000F894A8958091600088618093600010929C
:103CF00060000FBE08950E942A080E94A304089540
:103D000082E084BD93E095BD9AEF97BD80936E00ED
:103D100008952FB7F8948091B5029091B602A091C2
:103D2000B702B091B8022FBF08952FB7F8946091F1
:103D3000B5027091B6028091B7029091B8022FBF80
:103D400008959C014FB7F8948091B5029091B60206
:103D5000A091B702B091B8024FBF821B930B089598
:103D6000CF92DF92EF92FF922FB7F894C090B502F6
:103D7000D090B602E090B702F090B8022FBFA70132
:103D80009601261B370B480B590BCA01B901FF904E
:103D9000EF90DF90CF90089578941F920F920FB616
:103DA0000F9211248F939F93AF93BF938091B5028D
:103DB0009091B602A091B702B091B8020196A11DF0
:103DC000B11D8093B5029093B602A093B702B09351
:103DD000B802BF91AF919F918F910F900FBE0F903E
:103DE0001F90189587E797E7909301088093000844
:103DF0009AE088E10FB6F894A895809360000FBE12
:103E000090936000FFCF9AE088E10FB6F894A895F0
:103E1000809360000FBE90936000FFCF8EE14A9BBD
:103E200002C08150E1F74A9BFECF08955A9880E284
:103E30008A95F1F75A9A0895FC012AE02A95F1F73C
:103E400028E090E080E031E040E14A95F1F7880F0A
:103E50004A9B02C08160932700C0000040E14A9560
:103E6000F1F7215089F720E12A95F1F729B100C037
:103E7000000030E13A95F1F722FB222720F9922742
:103E80002081920F90830895A1E0B0E0EAE4FFE181
:103E90000C948F2719828C017C01E60EF11C0E1503
:103EA0001F0551F00E940E1FCE0101960E941C1F9B
:103EB000F80181938F01F3CF81E09981911180E026
:103EC0002196E6E00C94AB27529A5A9A089552989C
:103ED0005A9AEA9AE9E6F0E080818F7C808308951F
:103EE000615091E001C0990F6A95EAF720E031E056
:103EF000992361F0492F482319F05A9A232701C0CA
:103F00005A9840E24A95F1F79695F2CF222311F0A4
:103F10005A9A01C05A9880E28A95F1F75A98089502
:103F2000FF920F931F93CF93DF93EC018C01060F49
:103F3000111DC017D10741F0F9900E94161F68E0CB
:103F40008F2D0E94701FF5CFCDB7DEB7E5E00C9442
:103F5000AC271F920F920FB60F9211240F931F934D
:103F60002F933F934F935F936F937F938F939F9381
:103F7000AF93BF93EF93FF93CF93DF931F92CDB790
:103F8000DEB719820E940E1FCE0101960E941C1FEF
:103F9000082F069506950695902F96959570202FDB
:103FA0002570920F292F237096959695920F877002
:103FB00089135FC0898181115CC0043008F059C049
:103FC00080E18A95F1F75A9A529A82E08A95F1F740
:103FD00000C05A9888E0089F80011124D801A95E8A
:103FE000BE4F1696ED91FC9117973097A9F060910E
:103FF000CB017091CC0114962D913C911597260F11
:10400000371F11968D919C911297680F791F139607
:104010004C9113978C910995F801E95EFE4F6381ED
:10402000662351F08091CB019091CC0124813581A0
:10403000820F931F0E94901F0E94161F80E18A9595
:10404000F1F75A9852985A9A80E18A95F1F7F80157
:10405000E95EFE4F6081662351F08091CB01909123
:10406000CC0121813281820F931F0E94441F0E9444
:104070000E1F0F90DF91CF91FF91EF91BF91AF9104
:104080009F918F917F916F915F914F913F912F9170
:104090001F910F910F900FBE0F901F9018950F93C7
:1040A0001F93CF93DF93843091050CF06DC0EC012A
:1040B000F894529A5A9885E08A95F1F700009C2F5F
:1040C000969595702C2F2570920F892F8370969559
:1040D000969523E0CC0FDD1F2A95E1F7980F8E010E
:1040E000092B0E94161F84E08A95F1F700C068E052
:1040F000802F0E94701F80E18A95F1F752985A9A9A
:104100004A9902C000C0FCCF87E090E04A9B08C0FB
:10411000019721F4529A5A9A789436C000C0F6CF8B
:10412000FE01E95EFE4F6381662381F08091CB0141
:104130009091CC0124813581820F931F0E94441FEE
:10414000811104C0529A5A9A78941FC00E940E1F7F
:1041500080E28A95F1F75A98529A80E18A95F1F7B0
:10416000C95EDE4F6881662351F08091CB0190914A
:10417000CC0129813A81820F931F0E94901F0E94D7
:10418000161F789481E001C080E0DF91CF911F91EC
:104190000F91089508959B019091BD029430F1F420
:1041A0008F708093E9008FEF9091E800815095FD2A
:1041B00006C095ED9A95F1F700008111F5CF809139
:1041C000E80085FF0BC0BA01C90140E050E00E9441
:1041D000D0228091E8008E778093E800089543E034
:1041E00050E0BC0182E00E94CB20089546E050E000
:1041F000BC0182E00E94CB200895CF93DF93EC01B5
:104200000E94D91D48E050E0BE0181E00E94CB2011
:1042100088E0FE01A2E9B2E001900D928A95E1F7F3
:10422000DF91CF9108958091BC02811109C00E9455
:104230005B240E94B8248091E20084608093E200B5
:1042400008951092BC0208950E94C51D81E00E944D
:10425000C81D08956091B90281E0611101C080E03C
:104260000E94941D08959091BD0281E0943009F060
:1042700080E06091B9020E94A21D089542E061ECC5
:1042800081E00E94D42342E261EC82E00E94D423C8
:104290009091BD0281E0943009F080E06091B90214
:1042A0000E94B41D08958091BF02833009F461C05B
:1042B00030F4813071F0823009F49BC008958A3067
:1042C00009F487C08B3009F46CC0893009F0A9C0AB
:1042D00020C08091BE02813A09F0A3C08091E8001D
:1042E000877F8093E8008091C2029091C302892B5E
:1042F00021F468E082E992E003C060E080E090E0B1
:1043000070E00E9415238091E8008B778093E8008D
:1043100008958091BE02813209F083C08091C2026B
:104320009091C302029708F07CC08091E800877FDB
:104330008093E8008091E80082FD05C08091BD0275
:104340008111F8CF6EC02091F3008091F20090E0CF
:10435000922B029731F48091F100813011F0863078
:1043600021F48091F1000E94DC1D8091E8008B77A0
:1043700054C08091BE02813A09F053C08091C202BC
:104380009091C302892B09F04CC08091E800877F8F
:104390008093E8008091E80080FFFCCF0E94D91D47
:1043A00037C08091BE028132E1F58091C2029091C6
:1043B000C302892BB1F58091E800877F8093E800E4
:1043C0000E9409248091C0020E94C81D0E942A08F0
:1043D00008958091BE02813221F58091E800877FA7
:1043E0008093E8000E9409248091C1020E94EC1D84
:1043F00008958091BE02813AA1F48091E800877F00
:104400008093E8008091E80080FFFCCF0E94F91DB6
:104410008093F1008091E8008E778093E8000E94FD
:104420000924089584B7877F84BF0FB6F894A895B0
:1044300080916000886180936000109260000FBEE0
:1044400090E080E80FB6F89480936100909361004B
:104450000FBE0E94B71D08950E945B240E94B824DD
:10446000E2EEF0E080818460808378940E944327AC
:1044700008958BE391E00E947E1C08958091BD0217
:104480008530A9F48091BD02853079F40E94501ED8
:104490000E940C1E8823B1F38091BB02882391F304
:1044A0000E94BA220E942A08EDCF0E947B1E089526
:1044B00008959A014091C4025091C5020E94612260
:1044C0000895492F552743305105C9F060F4413014
:1044D000510581F04230510509F044C08BE390E072
:1044E00044E954E043C041325105E1F04232510504
:1044F00049F138C082E190E04FEC54E037C0992791
:104500008130910549F028F0029761F5EAE6F4E080
:1045100005C0E0E9F4E002C0E6E8F4E0849190E050
:10452000AF0124C06115710541F061307105D1F40E
:1045300089E090E04FEB54E019C089E090E046EA52
:1045400054E014C06115710541F06130710551F4FA
:104550008BE790E041EE54E009C084E490E04CE544
:1045600055E004C080E090E040E050E0F901518364
:104570004083089580E189BD82E189BD09B400FED0
:10458000FDCF8091D8008F7D8093D8008091E0008E
:1045900082608093E0008091E00081FDFCCF08956F
:1045A000A0E0B0E0E6EDF2E20C948D27EC018B0187
:1045B0007A010E942824811133C0E114F10439F0FA
:1045C000F70180819181081B190BC80FD91FC12CDD
:1045D000D12C0115110519F18091E80085FD16C057
:1045E0008091E8008E778093E800E114F10449F0AF
:1045F000F70180819181C80ED91ED182C08285E0E9
:104600000FC00E942824882321F30AC08991809337
:10461000F10001501109FFEFCF1ADF0ADACF80E075
:10462000CDB7DEB7E8E00C94A9272091C402309101
:10463000C5022617370748F06115710539F4209136
:10464000E8002E772093E80001C0B901FC0120E0CA
:104650006115710579F18091BD028823F1F18530F2
:10466000F1F18091E80083FD3CC08091E80082FD7B
:104670002EC08091E80080FFEBCF2091F300809165
:10468000F20090E0922B6115710551F08830910590
:1046900038F421912093F100615071090196F3CF14
:1046A00021E0089709F020E08091E8008E77809360
:1046B000E800CECF2111CFCF0AC08091BD02882360
:1046C00061F0853061F08091E80083FD0AC080913F
:1046D000E80082FFF2CF80E0089582E0089583E051
:1046E000089581E008952091C4023091C5022617F3
:1046F000370748F06115710539F42091E8002E77ED
:104700002093E80001C0B901FC0120E061157105AA
:1047100091F18091BD02882309F440C0853009F4ED
:104720003FC08091E80083FD3DC08091E80082FD9C
:104730002FC08091E80080FFE9CF2091F3008091A5
:10474000F20090E0922B6115710559F088309105C7
:1047500040F424912093F100319661507109019643
:10476000F2CF21E0089709F020E08091E8008E77F1
:104770008093E800CBCF2111CCCF0AC08091BD023D
:10478000882361F0853061F08091E80083FD0AC0E4
:104790008091E80082FFF2CF80E0089582E00895E2
:1047A00083E0089581E00895982F973068F59093FD
:1047B000E900981739F07091EC002091ED005091CC
:1047C000F00003C0242F762F50E021FD02C09F5F30
:1047D000ECCF3091EB003E7F3093EB003091ED0059
:1047E0003D7F3093ED003091EB0031603093EB0072
:1047F0007093EC002093ED005093F0002091EE00B8
:1048000027FDE5CF80E008958F708093E90081E077
:1048100008958091BE0287FF11C08091E80082FD5B
:1048200005C08091BD028111F8CF11C08091E800D0
:104830008B770BC08091BD02882349F08091E800FE
:1048400080FFF8CF8091E8008E778093E80008958C
:104850002091E4003091E50095E64091EC00842F32
:10486000817040FF23C08091E80080FD1DC08091D1
:10487000BD02882399F0853099F08091EB0085FD89
:1048800011C04091E4005091E5002417350729F349
:10489000915011F09A01E1CF84E0089582E00895EB
:1048A00083E0089581E0089580E008954091E80054
:1048B00042FFDDCF08950E94CA240E94D224E0EE78
:1048C000F0E0808181608083E8EDF0E080818F7787
:1048D000808319BCA7EDB0E08C918E7F8C93808192
:1048E0008F7E80831092BC0208950F931F93CF9305
:1048F000DF930E94CA240E94D224C8EDD0E08881B0
:104900008F77888388818068888388818F7D88837A
:1049100019BC1092BD021092B9021092BB02109203
:10492000BA0200EE10E0F80180818B7F80838881DD
:104930008160888342E060E080E00E94D423E1EE61
:10494000F0E080818E7F8083E2EEF0E08081816004
:104950008083808188608083F80180818E7F80835E
:10496000888180618883DF91CF911F910F91089595
:10497000E8EDF0E080818F7E8083E7EDF0E08081DC
:104980008160808384E082BF81E08093BC020E94CA
:1049900075240895E8EDF0E080818E7F8083109289
:1049A000E20008951092DA001092E10008951F923B
:1049B0000F920FB60F9211242F933F934F935F9353
:1049C0006F937F938F939F93AF93BF93EF93FF93D7
:1049D0008091E10082FF0BC08091E20082FF07C05E
:1049E0008091E1008B7F8093E1000E9442278091BB
:1049F000DA0080FF1FC08091D80080FF1BC080912B
:104A0000DA008E7F8093DA008091D90080FF0DC09C
:104A100080E189BD82E189BD09B400FEFDCF81E05E
:104A20008093BD020E94132105C019BC1092BD02E3
:104A30000E9421218091E10080FF19C08091E20055
:104A400080FF15C08091E2008E7F8093E20080910C
:104A5000E20080618093E2008091D80080628093C0
:104A6000D80019BC85E08093BD020E942A21809164
:104A7000E10084FF30C08091E20084FF2CC080E11F
:104A800089BD82E189BD09B400FEFDCF8091D800C7
:104A90008F7D8093D8008091E1008F7E8093E1002C
:104AA0008091E2008F7E8093E2008091E20081603D
:104AB0008093E2008091B902882311F084E007C05E
:104AC0008091E30087FD02C081E001C083E0809314
:104AD000BD020E9433218091E10083FF29C08091B3
:104AE000E20083FF25C08091E100877F8093E10091
:104AF00082E08093BD021092B9028091E1008E7F26
:104B00008093E1008091E2008E7F8093E2008091AB
:104B1000E20080618093E20042E060E080E00E9479
:104B2000D4238091F00088608093F0000E942421BB
:104B3000FF91EF91BF91AF919F918F917F916F9175
:104B40005F914F913F912F910F900FBE0F901F904B
:104B500018951F920F920FB60F9211242F933F9327
:104B60004F935F936F937F938F939F93AF93BF9375
:104B7000CF93DF93EF93FF93C091E900CF708091C3
:104B8000EC00D82FD17080FDD0E81092E900809120
:104B9000F000877F8093F00078940E94ED251092BA
:104BA000E9008091F00088608093F000CD2BCF70F9
:104BB000C093E900FF91EF91DF91CF91BF91AF9149
:104BC0009F918F917F916F915F914F913F912F9125
:104BD0000F900FBE0F901F901895AAE2B0E0E3EF80
:104BE000F5E20C949227EEEBF2E08091F1008193D4
:104BF00022E0E63CF207C9F70E9453218091E800C9
:104C000083FF2EC18091BE029091BF02492F50E0D8
:104C10004A30510508F024C1FA01ED56FF4F0C94BB
:104C20007D27803821F0823809F01AC108C08091B0
:104C3000BA029091BB02992389F082600FC08091E3
:104C4000C2028F70873008F00BC18093E900809119
:104C5000EB0085FB882780F91092E9009091E8002D
:104C6000977F9093E8008093F1001092F100D1C0FB
:104C7000282F2D7F09F0F4C0882319F0823061F0CD
:104C8000EFC08091C002813009F0EAC0933009F092
:104C900080E08093BB022EC08091C00281112AC0A7
:104CA0008091C2028F702FEF280F263008F0D8C0F5
:104CB0008093E9002091EB0020FF1CC0933021F489
:104CC0008091EB00806214C09091EB009061909312
:104CD000EB0021E030E0A90102C0440F551F8A9586
:104CE000E2F74093EA001092EA008091EB008860BE
:104CF0008093EB001092E9008091E800877F809319
:104D0000E8000E940924ACC08111AAC01091C00221
:104D10001F778091E3008078812B8093E30080915E
:104D2000E800877F8093E8000E9409248091E800D2
:104D300080FFFCCF8091E30080688093E300111135
:104D400002C082E001C083E08093BD0289C0805828
:104D5000823008F085C08091C0029091C1028C3DE4
:104D600053E0950779F583E08A838AE289834FB718
:104D7000F894DE01139620E03EE051E2E32FF0E0EC
:104D800050935700E49120FF03C0E295EF703F5F1E
:104D9000EF708E2F90E0EA3010F0C79601C0C096F9
:104DA0008D939D932F5F243149F74FBF8091E80089
:104DB000877F8093E8006AE270E0CE0101960E944E
:104DC000152316C06091C2027091C302AE014F5FFD
:104DD0005F4F0E945922BC01892B09F441C0909178
:104DE000E800977F9093E80089819A810E9473235D
:104DF0008091E8008B778093E80032C0803881F59D
:104E00008091E800877F8093E8008091B9028093C9
:104E1000F1008091E8008E7772CF811121C08091DE
:104E2000C0029091C10299270297D4F48091E800C2
:104E3000877F8093E8008091C0028093B9020E942E
:104E400009248091B902811106C08091E30087FD99
:104E500002C081E001C084E08093BD020E943E2137
:104E60008091E80083FF0AC08091E800877F8093EB
:104E7000E8008091EB0080628093EB00AA96E3E06B
:104E80000C94AE270895CF938091BD028823A1F0A2
:104E9000C091E900CF709091EC00892F817090FD56
:104EA00080E8C82B1092E9008091E80083FD0E9401
:104EB000ED25CF70C093E900CF9108950E945B2447
:104EC0001092BD0208958091E300881F8827881FF3
:104ED000089597FB072E16F4009407D077FD09D0AC
:104EE0000E94BA2707FC05D03EF4909581959F4F0C
:104EF0000895709561957F4F0895EE0FFF1F0590FF
:104F0000F491E02D09942F923F924F925F926F920D
:104F10007F928F929F92AF92BF92CF92DF92EF9249
:104F2000FF920F931F93CF93DF93CDB7DEB7CA1BCA
:104F3000DB0B0FB6F894DEBF0FBECDBF09942A88F5
:104F4000398848885F846E847D848C849B84AA849D
:104F5000B984C884DF80EE80FD800C811B81AA812A
:104F6000B981CE0FD11D0FB6F894DEBF0FBECDBFF5
:104F7000ED010895AA1BBB1B51E107C0AA1FBB1F6F
:104F8000A617B70710F0A61BB70B881F991F5A95D5
:104F9000A9F780959095BC01CD010895FB01DC0136
:104FA00004C08D910190801921F441505040C8F700
:104FB000881B990B0895FB01DC0102C001900D9242
:104FC00041505040D8F70895F999FECF92BD81BD68
:104FD000F89A992780B50895A8E1B0E042E050E042
:104FE0000C942828DC01A40FB51F4150504048F014
:104FF000CB01840F951F2E910E94032841505040F1
:10500000D0F70895262FF999FECF92BD81BDF89A69
:10501000019700B4021639F01FBA20BD0FB6F894FC
:10502000FA9AF99A0FBE08950396272F0E94032833
:105030000E940228252F0E940328242F0C94032865
:105040000196272F0E9403280C940228DC01CB0133
:10505000FC01F999FECF06C0F2BDE1BDF89A319688
:1050600000B40D9241505040B8F70895F894FFCF26
:105070003A02C6F7F6F5F4313332369391909466DE
:10508000973435FFFFFF0100000001000000000021
:10509000000004010000000405000000000000649E
:1050A00008320A280A100A00000100E91DFD20CA82
:1050B00020F620EF20F4F5F6F7C693363233319719
:1050C000669490913534FFFFFFE200E900EA00B5F5
:1050D00000B600B700CD008301CC008A0192019494
:1050E000012102230224022502260227022A02B3FA
:1050F00000B4006F0070009F01CB019F02A00281ED
:105100008283E200E900EA00B500B600B700CD00F6
:105110008301CC008A01920194012102230224021E
:105120002502260227022A02B300B4006F00700095
:0E5130009F01CB019F02A002818283600200DA
:00000001FF
